{
  "contractName": "TexTrace",
  "abi": [
    {
      "inputs": [],
      "stateMutability": "nonpayable",
      "type": "constructor"
    },
    {
      "anonymous": false,
      "inputs": [
        {
          "indexed": true,
          "internalType": "address",
          "name": "account",
          "type": "address"
        },
        {
          "indexed": true,
          "internalType": "address",
          "name": "operator",
          "type": "address"
        },
        {
          "indexed": false,
          "internalType": "bool",
          "name": "approved",
          "type": "bool"
        }
      ],
      "name": "ApprovalForAll",
      "type": "event"
    },
    {
      "anonymous": false,
      "inputs": [
        {
          "indexed": true,
          "internalType": "address",
          "name": "operator",
          "type": "address"
        },
        {
          "indexed": true,
          "internalType": "address",
          "name": "from",
          "type": "address"
        },
        {
          "indexed": true,
          "internalType": "address",
          "name": "to",
          "type": "address"
        },
        {
          "indexed": false,
          "internalType": "uint256[]",
          "name": "ids",
          "type": "uint256[]"
        },
        {
          "indexed": false,
          "internalType": "uint256[]",
          "name": "values",
          "type": "uint256[]"
        }
      ],
      "name": "TransferBatch",
      "type": "event"
    },
    {
      "anonymous": false,
      "inputs": [
        {
          "indexed": true,
          "internalType": "address",
          "name": "operator",
          "type": "address"
        },
        {
          "indexed": true,
          "internalType": "address",
          "name": "from",
          "type": "address"
        },
        {
          "indexed": true,
          "internalType": "address",
          "name": "to",
          "type": "address"
        },
        {
          "indexed": false,
          "internalType": "uint256",
          "name": "id",
          "type": "uint256"
        },
        {
          "indexed": false,
          "internalType": "uint256",
          "name": "value",
          "type": "uint256"
        }
      ],
      "name": "TransferSingle",
      "type": "event"
    },
    {
      "anonymous": false,
      "inputs": [
        {
          "indexed": false,
          "internalType": "string",
          "name": "value",
          "type": "string"
        },
        {
          "indexed": true,
          "internalType": "uint256",
          "name": "id",
          "type": "uint256"
        }
      ],
      "name": "URI",
      "type": "event"
    },
    {
      "inputs": [],
      "name": "COTON",
      "outputs": [
        {
          "internalType": "uint256",
          "name": "",
          "type": "uint256"
        }
      ],
      "stateMutability": "view",
      "type": "function"
    },
    {
      "inputs": [],
      "name": "LINEN",
      "outputs": [
        {
          "internalType": "uint256",
          "name": "",
          "type": "uint256"
        }
      ],
      "stateMutability": "view",
      "type": "function"
    },
    {
      "inputs": [],
      "name": "NYLON",
      "outputs": [
        {
          "internalType": "uint256",
          "name": "",
          "type": "uint256"
        }
      ],
      "stateMutability": "view",
      "type": "function"
    },
    {
      "inputs": [],
      "name": "POLYESTER",
      "outputs": [
        {
          "internalType": "uint256",
          "name": "",
          "type": "uint256"
        }
      ],
      "stateMutability": "view",
      "type": "function"
    },
    {
      "inputs": [],
      "name": "VISCOSE",
      "outputs": [
        {
          "internalType": "uint256",
          "name": "",
          "type": "uint256"
        }
      ],
      "stateMutability": "view",
      "type": "function"
    },
    {
      "inputs": [
        {
          "internalType": "address",
          "name": "account",
          "type": "address"
        },
        {
          "internalType": "uint256",
          "name": "id",
          "type": "uint256"
        }
      ],
      "name": "balanceOf",
      "outputs": [
        {
          "internalType": "uint256",
          "name": "",
          "type": "uint256"
        }
      ],
      "stateMutability": "view",
      "type": "function"
    },
    {
      "inputs": [
        {
          "internalType": "address[]",
          "name": "accounts",
          "type": "address[]"
        },
        {
          "internalType": "uint256[]",
          "name": "ids",
          "type": "uint256[]"
        }
      ],
      "name": "balanceOfBatch",
      "outputs": [
        {
          "internalType": "uint256[]",
          "name": "",
          "type": "uint256[]"
        }
      ],
      "stateMutability": "view",
      "type": "function"
    },
    {
      "inputs": [
        {
          "internalType": "address",
          "name": "account",
          "type": "address"
        },
        {
          "internalType": "address",
          "name": "operator",
          "type": "address"
        }
      ],
      "name": "isApprovedForAll",
      "outputs": [
        {
          "internalType": "bool",
          "name": "",
          "type": "bool"
        }
      ],
      "stateMutability": "view",
      "type": "function"
    },
    {
      "inputs": [
        {
          "internalType": "address",
          "name": "from",
          "type": "address"
        },
        {
          "internalType": "address",
          "name": "to",
          "type": "address"
        },
        {
          "internalType": "uint256[]",
          "name": "ids",
          "type": "uint256[]"
        },
        {
          "internalType": "uint256[]",
          "name": "amounts",
          "type": "uint256[]"
        },
        {
          "internalType": "bytes",
          "name": "data",
          "type": "bytes"
        }
      ],
      "name": "safeBatchTransferFrom",
      "outputs": [],
      "stateMutability": "nonpayable",
      "type": "function"
    },
    {
      "inputs": [
        {
          "internalType": "address",
          "name": "from",
          "type": "address"
        },
        {
          "internalType": "address",
          "name": "to",
          "type": "address"
        },
        {
          "internalType": "uint256",
          "name": "id",
          "type": "uint256"
        },
        {
          "internalType": "uint256",
          "name": "amount",
          "type": "uint256"
        },
        {
          "internalType": "bytes",
          "name": "data",
          "type": "bytes"
        }
      ],
      "name": "safeTransferFrom",
      "outputs": [],
      "stateMutability": "nonpayable",
      "type": "function"
    },
    {
      "inputs": [
        {
          "internalType": "address",
          "name": "operator",
          "type": "address"
        },
        {
          "internalType": "bool",
          "name": "approved",
          "type": "bool"
        }
      ],
      "name": "setApprovalForAll",
      "outputs": [],
      "stateMutability": "nonpayable",
      "type": "function"
    },
    {
      "inputs": [
        {
          "internalType": "bytes4",
          "name": "interfaceId",
          "type": "bytes4"
        }
      ],
      "name": "supportsInterface",
      "outputs": [
        {
          "internalType": "bool",
          "name": "",
          "type": "bool"
        }
      ],
      "stateMutability": "view",
      "type": "function"
    },
    {
      "inputs": [
        {
          "internalType": "uint256",
          "name": "_tokenId",
          "type": "uint256"
        }
      ],
      "name": "uri",
      "outputs": [
        {
          "internalType": "string",
          "name": "",
          "type": "string"
        }
      ],
      "stateMutability": "view",
      "type": "function"
    }
  ],
  "bytecode": "0x60806040526b033b2e3c9fd0803ce80000006003553480156200002157600080fd5b506040518060600160405280602781526020016200362c602791396200004d816200011160201b60201c565b5062000074336000600354604051806020016040528060008152506200012d60201b60201c565b6200009a336001600354604051806020016040528060008152506200012d60201b60201c565b620000c0336002600354604051806020016040528060008152506200012d60201b60201c565b620000e53360038054604051806020016040528060008152506200012d60201b60201c565b6200010b336004600354604051806020016040528060008152506200012d60201b60201c565b62000d25565b806002908051906020019062000129929190620005a0565b5050565b600073ffffffffffffffffffffffffffffffffffffffff168473ffffffffffffffffffffffffffffffffffffffff161415620001a0576040517f08c379a00000000000000000000000000000000000000000000000000000000081526004016200019790620006d7565b60405180910390fd5b6000620001b2620002f260201b60201c565b9050620001eb81600087620001cd88620002fa60201b60201c565b620001de88620002fa60201b60201c565b876200037b60201b60201c565b8260008086815260200190815260200160002060008773ffffffffffffffffffffffffffffffffffffffff1673ffffffffffffffffffffffffffffffffffffffff16815260200190815260200160002060008282546200024c919062000732565b925050819055508473ffffffffffffffffffffffffffffffffffffffff16600073ffffffffffffffffffffffffffffffffffffffff168273ffffffffffffffffffffffffffffffffffffffff167fc3d58168c5ae7397731d063d5bbf3d657854427343f4c083240f7aacaa2d0f628787604051620002cc929190620007a0565b60405180910390a4620002eb816000878787876200038360201b60201c565b5050505050565b600033905090565b60606000600167ffffffffffffffff8111156200031c576200031b620007cd565b5b6040519080825280602002602001820160405280156200034b5781602001602082028036833780820191505090505b5090508281600081518110620003665762000365620007fc565b5b60200260200101818152505080915050919050565b505050505050565b620003af8473ffffffffffffffffffffffffffffffffffffffff166200058d60201b620009121760201c565b1562000585578373ffffffffffffffffffffffffffffffffffffffff1663f23a6e6187878686866040518663ffffffff1660e01b8152600401620003f895949392919062000914565b602060405180830381600087803b1580156200041357600080fd5b505af19250505080156200044757506040513d601f19601f82011682018060405250810190620004449190620009e4565b60015b620004f9576200045662000a23565b806308c379a01415620004ba57506200046e62000a7e565b806200047b5750620004bc565b806040517f08c379a0000000000000000000000000000000000000000000000000000000008152600401620004b1919062000b6c565b60405180910390fd5b505b6040517f08c379a0000000000000000000000000000000000000000000000000000000008152600401620004f09062000c06565b60405180910390fd5b63f23a6e6160e01b7bffffffffffffffffffffffffffffffffffffffffffffffffffffffff1916817bffffffffffffffffffffffffffffffffffffffffffffffffffffffff19161462000583576040517f08c379a00000000000000000000000000000000000000000000000000000000081526004016200057a9062000c9e565b60405180910390fd5b505b505050505050565b600080823b905060008111915050919050565b828054620005ae9062000cef565b90600052602060002090601f016020900481019282620005d257600085556200061e565b82601f10620005ed57805160ff19168380011785556200061e565b828001600101855582156200061e579182015b828111156200061d57825182559160200191906001019062000600565b5b5090506200062d919062000631565b5090565b5b808211156200064c57600081600090555060010162000632565b5090565b600082825260208201905092915050565b7f455243313135353a206d696e7420746f20746865207a65726f2061646472657360008201527f7300000000000000000000000000000000000000000000000000000000000000602082015250565b6000620006bf60218362000650565b9150620006cc8262000661565b604082019050919050565b60006020820190508181036000830152620006f281620006b0565b9050919050565b6000819050919050565b7f4e487b7100000000000000000000000000000000000000000000000000000000600052601160045260246000fd5b60006200073f82620006f9565b91506200074c83620006f9565b9250827fffffffffffffffffffffffffffffffffffffffffffffffffffffffffffffffff0382111562000784576200078362000703565b5b828201905092915050565b6200079a81620006f9565b82525050565b6000604082019050620007b760008301856200078f565b620007c660208301846200078f565b9392505050565b7f4e487b7100000000000000000000000000000000000000000000000000000000600052604160045260246000fd5b7f4e487b7100000000000000000000000000000000000000000000000000000000600052603260045260246000fd5b600073ffffffffffffffffffffffffffffffffffffffff82169050919050565b600062000858826200082b565b9050919050565b6200086a816200084b565b82525050565b600081519050919050565b600082825260208201905092915050565b60005b83811015620008ac5780820151818401526020810190506200088f565b83811115620008bc576000848401525b50505050565b6000601f19601f8301169050919050565b6000620008e08262000870565b620008ec81856200087b565b9350620008fe8185602086016200088c565b6200090981620008c2565b840191505092915050565b600060a0820190506200092b60008301886200085f565b6200093a60208301876200085f565b6200094960408301866200078f565b6200095860608301856200078f565b81810360808301526200096c8184620008d3565b90509695505050505050565b6000604051905090565b600080fd5b60007fffffffff0000000000000000000000000000000000000000000000000000000082169050919050565b620009be8162000987565b8114620009ca57600080fd5b50565b600081519050620009de81620009b3565b92915050565b600060208284031215620009fd57620009fc62000982565b5b600062000a0d84828501620009cd565b91505092915050565b60008160e01c9050919050565b600060033d111562000a455760046000803e62000a4260005162000a16565b90505b90565b62000a5382620008c2565b810181811067ffffffffffffffff8211171562000a755762000a74620007cd565b5b80604052505050565b600060443d101562000a905762000b1d565b62000a9a62000978565b60043d036004823e80513d602482011167ffffffffffffffff8211171562000ac457505062000b1d565b808201805167ffffffffffffffff81111562000ae4575050505062000b1d565b80602083010160043d03850181111562000b0357505050505062000b1d565b62000b148260200185018662000a48565b82955050505050505b90565b600081519050919050565b600062000b388262000b20565b62000b44818562000650565b935062000b568185602086016200088c565b62000b6181620008c2565b840191505092915050565b6000602082019050818103600083015262000b88818462000b2b565b905092915050565b7f455243313135353a207472616e7366657220746f206e6f6e204552433131353560008201527f526563656976657220696d706c656d656e746572000000000000000000000000602082015250565b600062000bee60348362000650565b915062000bfb8262000b90565b604082019050919050565b6000602082019050818103600083015262000c218162000bdf565b9050919050565b7f455243313135353a204552433131353552656365697665722072656a6563746560008201527f6420746f6b656e73000000000000000000000000000000000000000000000000602082015250565b600062000c8660288362000650565b915062000c938262000c28565b604082019050919050565b6000602082019050818103600083015262000cb98162000c77565b9050919050565b7f4e487b7100000000000000000000000000000000000000000000000000000000600052602260045260246000fd5b6000600282049050600182168062000d0857607f821691505b6020821081141562000d1f5762000d1e62000cc0565b5b50919050565b6128f78062000d356000396000f3fe608060405234801561001057600080fd5b50600436106100ce5760003560e01c8063757682561161008c578063d538916611610066578063d538916614610225578063e7adf78b14610243578063e985e9c514610261578063f242432a14610291576100ce565b806375768256146101cd5780639589dadb146101eb578063a22cb46514610209576100ce565b8062fdd58e146100d357806301ffc9a7146101035780630e89341c146101335780631fe8cf14146101635780632eb2c2d6146101815780634e1273f41461019d575b600080fd5b6100ed60048036038101906100e89190611586565b6102ad565b6040516100fa91906115d5565b60405180910390f35b61011d60048036038101906101189190611648565b610376565b60405161012a9190611690565b60405180910390f35b61014d600480360381019061014891906116ab565b610458565b60405161015a9190611771565b60405180910390f35b61016b610489565b60405161017891906115d5565b60405180910390f35b61019b60048036038101906101969190611990565b61048e565b005b6101b760048036038101906101b29190611b22565b61052f565b6040516101c49190611c58565b60405180910390f35b6101d5610648565b6040516101e291906115d5565b60405180910390f35b6101f361064d565b60405161020091906115d5565b60405180910390f35b610223600480360381019061021e9190611ca6565b610652565b005b61022d6107d3565b60405161023a91906115d5565b60405180910390f35b61024b6107d8565b60405161025891906115d5565b60405180910390f35b61027b60048036038101906102769190611ce6565b6107dd565b6040516102889190611690565b60405180910390f35b6102ab60048036038101906102a69190611d26565b610871565b005b60008073ffffffffffffffffffffffffffffffffffffffff168373ffffffffffffffffffffffffffffffffffffffff16141561031e576040517f08c379a000000000000000000000000000000000000000000000000000000000815260040161031590611e2f565b60405180910390fd5b60008083815260200190815260200160002060008473ffffffffffffffffffffffffffffffffffffffff1673ffffffffffffffffffffffffffffffffffffffff16815260200190815260200160002054905092915050565b60007fd9b67a26000000000000000000000000000000000000000000000000000000007bffffffffffffffffffffffffffffffffffffffffffffffffffffffff1916827bffffffffffffffffffffffffffffffffffffffffffffffffffffffff1916148061044157507f0e89341c000000000000000000000000000000000000000000000000000000007bffffffffffffffffffffffffffffffffffffffffffffffffffffffff1916827bffffffffffffffffffffffffffffffffffffffffffffffffffffffff1916145b80610451575061045082610925565b5b9050919050565b60606104638261098f565b6040516020016104739190611f23565b6040516020818303038152906040529050919050565b600281565b610496610af0565b73ffffffffffffffffffffffffffffffffffffffff168573ffffffffffffffffffffffffffffffffffffffff1614806104dc57506104db856104d6610af0565b6107dd565b5b61051b576040517f08c379a000000000000000000000000000000000000000000000000000000000815260040161051290611fc2565b60405180910390fd5b6105288585858585610af8565b5050505050565b60608151835114610575576040517f08c379a000000000000000000000000000000000000000000000000000000000815260040161056c90612054565b60405180910390fd5b6000835167ffffffffffffffff81111561059257610591611798565b5b6040519080825280602002602001820160405280156105c05781602001602082028036833780820191505090505b50905060005b845181101561063d5761060d8582815181106105e5576105e4612074565b5b6020026020010151858381518110610600576105ff612074565b5b60200260200101516102ad565b8282815181106106205761061f612074565b5b60200260200101818152505080610636906120d2565b90506105c6565b508091505092915050565b600081565b600181565b8173ffffffffffffffffffffffffffffffffffffffff16610671610af0565b73ffffffffffffffffffffffffffffffffffffffff1614156106c8576040517f08c379a00000000000000000000000000000000000000000000000000000000081526004016106bf9061218d565b60405180910390fd5b80600160006106d5610af0565b73ffffffffffffffffffffffffffffffffffffffff1673ffffffffffffffffffffffffffffffffffffffff16815260200190815260200160002060008473ffffffffffffffffffffffffffffffffffffffff1673ffffffffffffffffffffffffffffffffffffffff16815260200190815260200160002060006101000a81548160ff0219169083151502179055508173ffffffffffffffffffffffffffffffffffffffff16610782610af0565b73ffffffffffffffffffffffffffffffffffffffff167f17307eab39ab6107e8899845ad3d59bd9653f200f220920489ca2b5937696c31836040516107c79190611690565b60405180910390a35050565b600381565b600481565b6000600160008473ffffffffffffffffffffffffffffffffffffffff1673ffffffffffffffffffffffffffffffffffffffff16815260200190815260200160002060008373ffffffffffffffffffffffffffffffffffffffff1673ffffffffffffffffffffffffffffffffffffffff16815260200190815260200160002060009054906101000a900460ff16905092915050565b610879610af0565b73ffffffffffffffffffffffffffffffffffffffff168573ffffffffffffffffffffffffffffffffffffffff1614806108bf57506108be856108b9610af0565b6107dd565b5b6108fe576040517f08c379a00000000000000000000000000000000000000000000000000000000081526004016108f59061221f565b60405180910390fd5b61090b8585858585610e0c565b5050505050565b600080823b905060008111915050919050565b60007f01ffc9a7000000000000000000000000000000000000000000000000000000007bffffffffffffffffffffffffffffffffffffffffffffffffffffffff1916827bffffffffffffffffffffffffffffffffffffffffffffffffffffffff1916149050919050565b606060008214156109d7576040518060400160405280600181526020017f30000000000000000000000000000000000000000000000000000000000000008152509050610aeb565b600082905060005b60008214610a095780806109f2906120d2565b915050600a82610a02919061226e565b91506109df565b60008167ffffffffffffffff811115610a2557610a24611798565b5b6040519080825280601f01601f191660200182016040528015610a575781602001600182028036833780820191505090505b5090505b60008514610ae457600182610a70919061229f565b9150600a85610a7f91906122d3565b6030610a8b9190612304565b60f81b818381518110610aa157610aa0612074565b5b60200101907effffffffffffffffffffffffffffffffffffffffffffffffffffffffffffff1916908160001a905350600a85610add919061226e565b9450610a5b565b8093505050505b919050565b600033905090565b8151835114610b3c576040517f08c379a0000000000000000000000000000000000000000000000000000000008152600401610b33906123cc565b60405180910390fd5b600073ffffffffffffffffffffffffffffffffffffffff168473ffffffffffffffffffffffffffffffffffffffff161415610bac576040517f08c379a0000000000000000000000000000000000000000000000000000000008152600401610ba39061245e565b60405180910390fd5b6000610bb6610af0565b9050610bc681878787878761108e565b60005b8451811015610d77576000858281518110610be757610be6612074565b5b602002602001015190506000858381518110610c0657610c05612074565b5b60200260200101519050600080600084815260200190815260200160002060008b73ffffffffffffffffffffffffffffffffffffffff1673ffffffffffffffffffffffffffffffffffffffff16815260200190815260200160002054905081811015610ca7576040517f08c379a0000000000000000000000000000000000000000000000000000000008152600401610c9e906124f0565b60405180910390fd5b81810360008085815260200190815260200160002060008c73ffffffffffffffffffffffffffffffffffffffff1673ffffffffffffffffffffffffffffffffffffffff168152602001908152602001600020819055508160008085815260200190815260200160002060008b73ffffffffffffffffffffffffffffffffffffffff1673ffffffffffffffffffffffffffffffffffffffff1681526020019081526020016000206000828254610d5c9190612304565b9250508190555050505080610d70906120d2565b9050610bc9565b508473ffffffffffffffffffffffffffffffffffffffff168673ffffffffffffffffffffffffffffffffffffffff168273ffffffffffffffffffffffffffffffffffffffff167f4a39dc06d4c0dbc64b70af90fd698a233a518aa5d07e595d983b8c0526c8f7fb8787604051610dee929190612510565b60405180910390a4610e04818787878787611096565b505050505050565b600073ffffffffffffffffffffffffffffffffffffffff168473ffffffffffffffffffffffffffffffffffffffff161415610e7c576040517f08c379a0000000000000000000000000000000000000000000000000000000008152600401610e739061245e565b60405180910390fd5b6000610e86610af0565b9050610ea6818787610e978861127d565b610ea08861127d565b8761108e565b600080600086815260200190815260200160002060008873ffffffffffffffffffffffffffffffffffffffff1673ffffffffffffffffffffffffffffffffffffffff16815260200190815260200160002054905083811015610f3d576040517f08c379a0000000000000000000000000000000000000000000000000000000008152600401610f34906124f0565b60405180910390fd5b83810360008087815260200190815260200160002060008973ffffffffffffffffffffffffffffffffffffffff1673ffffffffffffffffffffffffffffffffffffffff168152602001908152602001600020819055508360008087815260200190815260200160002060008873ffffffffffffffffffffffffffffffffffffffff1673ffffffffffffffffffffffffffffffffffffffff1681526020019081526020016000206000828254610ff29190612304565b925050819055508573ffffffffffffffffffffffffffffffffffffffff168773ffffffffffffffffffffffffffffffffffffffff168373ffffffffffffffffffffffffffffffffffffffff167fc3d58168c5ae7397731d063d5bbf3d657854427343f4c083240f7aacaa2d0f62888860405161106f929190612547565b60405180910390a46110858288888888886112f7565b50505050505050565b505050505050565b6110b58473ffffffffffffffffffffffffffffffffffffffff16610912565b15611275578373ffffffffffffffffffffffffffffffffffffffff1663bc197c8187878686866040518663ffffffff1660e01b81526004016110fb9594939291906125d4565b602060405180830381600087803b15801561111557600080fd5b505af192505050801561114657506040513d601f19601f820116820180604052508101906111439190612651565b60015b6111ec5761115261268b565b806308c379a014156111af57506111676126ad565b8061117257506111b1565b806040517f08c379a00000000000000000000000000000000000000000000000000000000081526004016111a69190611771565b60405180910390fd5b505b6040517f08c379a00000000000000000000000000000000000000000000000000000000081526004016111e3906127b5565b60405180910390fd5b63bc197c8160e01b7bffffffffffffffffffffffffffffffffffffffffffffffffffffffff1916817bffffffffffffffffffffffffffffffffffffffffffffffffffffffff191614611273576040517f08c379a000000000000000000000000000000000000000000000000000000000815260040161126a90612847565b60405180910390fd5b505b505050505050565b60606000600167ffffffffffffffff81111561129c5761129b611798565b5b6040519080825280602002602001820160405280156112ca5781602001602082028036833780820191505090505b50905082816000815181106112e2576112e1612074565b5b60200260200101818152505080915050919050565b6113168473ffffffffffffffffffffffffffffffffffffffff16610912565b156114d6578373ffffffffffffffffffffffffffffffffffffffff1663f23a6e6187878686866040518663ffffffff1660e01b815260040161135c959493929190612867565b602060405180830381600087803b15801561137657600080fd5b505af19250505080156113a757506040513d601f19601f820116820180604052508101906113a49190612651565b60015b61144d576113b361268b565b806308c379a0141561141057506113c86126ad565b806113d35750611412565b806040517f08c379a00000000000000000000000000000000000000000000000000000000081526004016114079190611771565b60405180910390fd5b505b6040517f08c379a0000000000000000000000000000000000000000000000000000000008152600401611444906127b5565b60405180910390fd5b63f23a6e6160e01b7bffffffffffffffffffffffffffffffffffffffffffffffffffffffff1916817bffffffffffffffffffffffffffffffffffffffffffffffffffffffff1916146114d4576040517f08c379a00000000000000000000000000000000000000000000000000000000081526004016114cb90612847565b60405180910390fd5b505b505050505050565b6000604051905090565b600080fd5b600080fd5b600073ffffffffffffffffffffffffffffffffffffffff82169050919050565b600061151d826114f2565b9050919050565b61152d81611512565b811461153857600080fd5b50565b60008135905061154a81611524565b92915050565b6000819050919050565b61156381611550565b811461156e57600080fd5b50565b6000813590506115808161155a565b92915050565b6000806040838503121561159d5761159c6114e8565b5b60006115ab8582860161153b565b92505060206115bc85828601611571565b9150509250929050565b6115cf81611550565b82525050565b60006020820190506115ea60008301846115c6565b92915050565b60007fffffffff0000000000000000000000000000000000000000000000000000000082169050919050565b611625816115f0565b811461163057600080fd5b50565b6000813590506116428161161c565b92915050565b60006020828403121561165e5761165d6114e8565b5b600061166c84828501611633565b91505092915050565b60008115159050919050565b61168a81611675565b82525050565b60006020820190506116a56000830184611681565b92915050565b6000602082840312156116c1576116c06114e8565b5b60006116cf84828501611571565b91505092915050565b600081519050919050565b600082825260208201905092915050565b60005b838110156117125780820151818401526020810190506116f7565b83811115611721576000848401525b50505050565b6000601f19601f8301169050919050565b6000611743826116d8565b61174d81856116e3565b935061175d8185602086016116f4565b61176681611727565b840191505092915050565b6000602082019050818103600083015261178b8184611738565b905092915050565b600080fd5b7f4e487b7100000000000000000000000000000000000000000000000000000000600052604160045260246000fd5b6117d082611727565b810181811067ffffffffffffffff821117156117ef576117ee611798565b5b80604052505050565b60006118026114de565b905061180e82826117c7565b919050565b600067ffffffffffffffff82111561182e5761182d611798565b5b602082029050602081019050919050565b600080fd5b600061185761185284611813565b6117f8565b9050808382526020820190506020840283018581111561187a5761187961183f565b5b835b818110156118a3578061188f8882611571565b84526020840193505060208101905061187c565b5050509392505050565b600082601f8301126118c2576118c1611793565b5b81356118d2848260208601611844565b91505092915050565b600080fd5b600067ffffffffffffffff8211156118fb576118fa611798565b5b61190482611727565b9050602081019050919050565b82818337600083830152505050565b600061193361192e846118e0565b6117f8565b90508281526020810184848401111561194f5761194e6118db565b5b61195a848285611911565b509392505050565b600082601f83011261197757611976611793565b5b8135611987848260208601611920565b91505092915050565b600080600080600060a086880312156119ac576119ab6114e8565b5b60006119ba8882890161153b565b95505060206119cb8882890161153b565b945050604086013567ffffffffffffffff8111156119ec576119eb6114ed565b5b6119f8888289016118ad565b935050606086013567ffffffffffffffff811115611a1957611a186114ed565b5b611a25888289016118ad565b925050608086013567ffffffffffffffff811115611a4657611a456114ed565b5b611a5288828901611962565b9150509295509295909350565b600067ffffffffffffffff821115611a7a57611a79611798565b5b602082029050602081019050919050565b6000611a9e611a9984611a5f565b6117f8565b90508083825260208201905060208402830185811115611ac157611ac061183f565b5b835b81811015611aea5780611ad6888261153b565b845260208401935050602081019050611ac3565b5050509392505050565b600082601f830112611b0957611b08611793565b5b8135611b19848260208601611a8b565b91505092915050565b60008060408385031215611b3957611b386114e8565b5b600083013567ffffffffffffffff811115611b5757611b566114ed565b5b611b6385828601611af4565b925050602083013567ffffffffffffffff811115611b8457611b836114ed565b5b611b90858286016118ad565b9150509250929050565b600081519050919050565b600082825260208201905092915050565b6000819050602082019050919050565b611bcf81611550565b82525050565b6000611be18383611bc6565b60208301905092915050565b6000602082019050919050565b6000611c0582611b9a565b611c0f8185611ba5565b9350611c1a83611bb6565b8060005b83811015611c4b578151611c328882611bd5565b9750611c3d83611bed565b925050600181019050611c1e565b5085935050505092915050565b60006020820190508181036000830152611c728184611bfa565b905092915050565b611c8381611675565b8114611c8e57600080fd5b50565b600081359050611ca081611c7a565b92915050565b60008060408385031215611cbd57611cbc6114e8565b5b6000611ccb8582860161153b565b9250506020611cdc85828601611c91565b9150509250929050565b60008060408385031215611cfd57611cfc6114e8565b5b6000611d0b8582860161153b565b9250506020611d1c8582860161153b565b9150509250929050565b600080600080600060a08688031215611d4257611d416114e8565b5b6000611d508882890161153b565b9550506020611d618882890161153b565b9450506040611d7288828901611571565b9350506060611d8388828901611571565b925050608086013567ffffffffffffffff811115611da457611da36114ed565b5b611db088828901611962565b9150509295509295909350565b7f455243313135353a2062616c616e636520717565727920666f7220746865207a60008201527f65726f2061646472657373000000000000000000000000000000000000000000602082015250565b6000611e19602b836116e3565b9150611e2482611dbd565b604082019050919050565b60006020820190508181036000830152611e4881611e0c565b9050919050565b600081905092915050565b7f68747470733a2f2f67616d652e6578616d706c652f6170692f6974656d2f0000600082015250565b6000611e90601e83611e4f565b9150611e9b82611e5a565b601e82019050919050565b6000611eb1826116d8565b611ebb8185611e4f565b9350611ecb8185602086016116f4565b80840191505092915050565b7f2e6a736f6e000000000000000000000000000000000000000000000000000000600082015250565b6000611f0d600583611e4f565b9150611f1882611ed7565b600582019050919050565b6000611f2e82611e83565b9150611f3a8284611ea6565b9150611f4582611f00565b915081905092915050565b7f455243313135353a207472616e736665722063616c6c6572206973206e6f742060008201527f6f776e6572206e6f7220617070726f7665640000000000000000000000000000602082015250565b6000611fac6032836116e3565b9150611fb782611f50565b604082019050919050565b60006020820190508181036000830152611fdb81611f9f565b9050919050565b7f455243313135353a206163636f756e747320616e6420696473206c656e67746860008201527f206d69736d617463680000000000000000000000000000000000000000000000602082015250565b600061203e6029836116e3565b915061204982611fe2565b604082019050919050565b6000602082019050818103600083015261206d81612031565b9050919050565b7f4e487b7100000000000000000000000000000000000000000000000000000000600052603260045260246000fd5b7f4e487b7100000000000000000000000000000000000000000000000000000000600052601160045260246000fd5b60006120dd82611550565b91507fffffffffffffffffffffffffffffffffffffffffffffffffffffffffffffffff8214156121105761210f6120a3565b5b600182019050919050565b7f455243313135353a2073657474696e6720617070726f76616c2073746174757360008201527f20666f722073656c660000000000000000000000000000000000000000000000602082015250565b60006121776029836116e3565b91506121828261211b565b604082019050919050565b600060208201905081810360008301526121a68161216a565b9050919050565b7f455243313135353a2063616c6c6572206973206e6f74206f776e6572206e6f7260008201527f20617070726f7665640000000000000000000000000000000000000000000000602082015250565b60006122096029836116e3565b9150612214826121ad565b604082019050919050565b60006020820190508181036000830152612238816121fc565b9050919050565b7f4e487b7100000000000000000000000000000000000000000000000000000000600052601260045260246000fd5b600061227982611550565b915061228483611550565b9250826122945761229361223f565b5b828204905092915050565b60006122aa82611550565b91506122b583611550565b9250828210156122c8576122c76120a3565b5b828203905092915050565b60006122de82611550565b91506122e983611550565b9250826122f9576122f861223f565b5b828206905092915050565b600061230f82611550565b915061231a83611550565b9250827fffffffffffffffffffffffffffffffffffffffffffffffffffffffffffffffff0382111561234f5761234e6120a3565b5b828201905092915050565b7f455243313135353a2069647320616e6420616d6f756e7473206c656e6774682060008201527f6d69736d61746368000000000000000000000000000000000000000000000000602082015250565b60006123b66028836116e3565b91506123c18261235a565b604082019050919050565b600060208201905081810360008301526123e5816123a9565b9050919050565b7f455243313135353a207472616e7366657220746f20746865207a65726f20616460008201527f6472657373000000000000000000000000000000000000000000000000000000602082015250565b60006124486025836116e3565b9150612453826123ec565b604082019050919050565b600060208201905081810360008301526124778161243b565b9050919050565b7f455243313135353a20696e73756666696369656e742062616c616e636520666f60008201527f72207472616e7366657200000000000000000000000000000000000000000000602082015250565b60006124da602a836116e3565b91506124e58261247e565b604082019050919050565b60006020820190508181036000830152612509816124cd565b9050919050565b6000604082019050818103600083015261252a8185611bfa565b9050818103602083015261253e8184611bfa565b90509392505050565b600060408201905061255c60008301856115c6565b61256960208301846115c6565b9392505050565b61257981611512565b82525050565b600081519050919050565b600082825260208201905092915050565b60006125a68261257f565b6125b0818561258a565b93506125c08185602086016116f4565b6125c981611727565b840191505092915050565b600060a0820190506125e96000830188612570565b6125f66020830187612570565b81810360408301526126088186611bfa565b9050818103606083015261261c8185611bfa565b90508181036080830152612630818461259b565b90509695505050505050565b60008151905061264b8161161c565b92915050565b600060208284031215612667576126666114e8565b5b60006126758482850161263c565b91505092915050565b60008160e01c9050919050565b600060033d11156126aa5760046000803e6126a760005161267e565b90505b90565b600060443d10156126bd57612740565b6126c56114de565b60043d036004823e80513d602482011167ffffffffffffffff821117156126ed575050612740565b808201805167ffffffffffffffff81111561270b5750505050612740565b80602083010160043d038501811115612728575050505050612740565b612737826020018501866117c7565b82955050505050505b90565b7f455243313135353a207472616e7366657220746f206e6f6e204552433131353560008201527f526563656976657220696d706c656d656e746572000000000000000000000000602082015250565b600061279f6034836116e3565b91506127aa82612743565b604082019050919050565b600060208201905081810360008301526127ce81612792565b9050919050565b7f455243313135353a204552433131353552656365697665722072656a6563746560008201527f6420746f6b656e73000000000000000000000000000000000000000000000000602082015250565b60006128316028836116e3565b915061283c826127d5565b604082019050919050565b6000602082019050818103600083015261286081612824565b9050919050565b600060a08201905061287c6000830188612570565b6128896020830187612570565b61289660408301866115c6565b6128a360608301856115c6565b81810360808301526128b5818461259b565b9050969550505050505056fea26469706673582212206b082bd2a7fee882a90597668733f7b45338dc1eabebf3cd09a63006d8c5834e64736f6c6343000809003368747470733a2f2f67616d652e6578616d706c652f6170692f6974656d2f7b69647d2e6a736f6e",
  "immutableReferences": {},
  "source": "// SPDX-License-Identifier: MIT\npragma solidity ^0.8.9;\n\nimport \"@openzeppelin/contracts/token/ERC1155/ERC1155.sol\";\nimport \"@openzeppelin/contracts/utils/Strings.sol\";\n\ncontract TexTrace is ERC1155 {\n    uint256 public constant COTON = 0;\n    uint256 public constant POLYESTER = 1;\n    uint256 public constant VISCOSE = 2;\n    uint256 public constant LINEN = 3;\n    uint256 public constant NYLON = 4;\n\n    uint256 private initialSupply = 10**27;\n\n    constructor() ERC1155(\"https://game.example/api/item/{id}.json\") {\n        _mint(msg.sender, COTON, initialSupply, \"\");\n        _mint(msg.sender, POLYESTER, initialSupply, \"\");\n        _mint(msg.sender, VISCOSE, initialSupply, \"\");\n        _mint(msg.sender, LINEN, initialSupply, \"\");\n        _mint(msg.sender, NYLON, initialSupply, \"\");\n    }\n\n    function uri(uint256 _tokenId) public view override returns (string memory) {\n        return string(\n            abi.encodePacked(\n                \"https://game.example/api/item/\",\n                Strings.toString(_tokenId),\n                \".json\"\n            )\n        );\n    }\n\n\n}",
  "sourcePath": "/Users/iberat/ERC1155basic/contracts/TexTrace.sol",
  "compiler": {
    "name": "solc",
    "version": "0.8.9+commit.e5eed63a.Emscripten.clang"
  },
  "schemaVersion": "3.4.3",
  "updatedAt": "2021-10-31T12:21:54.958Z",
  "devdoc": {
    "kind": "dev",
    "methods": {
      "balanceOf(address,uint256)": {
        "details": "See {IERC1155-balanceOf}. Requirements: - `account` cannot be the zero address."
      },
      "balanceOfBatch(address[],uint256[])": {
        "details": "See {IERC1155-balanceOfBatch}. Requirements: - `accounts` and `ids` must have the same length."
      },
      "isApprovedForAll(address,address)": {
        "details": "See {IERC1155-isApprovedForAll}."
      },
      "safeBatchTransferFrom(address,address,uint256[],uint256[],bytes)": {
        "details": "See {IERC1155-safeBatchTransferFrom}."
      },
      "safeTransferFrom(address,address,uint256,uint256,bytes)": {
        "details": "See {IERC1155-safeTransferFrom}."
      },
      "setApprovalForAll(address,bool)": {
        "details": "See {IERC1155-setApprovalForAll}."
      },
      "supportsInterface(bytes4)": {
        "details": "See {IERC165-supportsInterface}."
      }
    },
    "version": 1
  },
  "userdoc": {
    "kind": "user",
    "methods": {},
    "version": 1
  }
}